{
  "address": "0xf278E8e45b411961b2977f27cc03b56F5837068F",
  "abi": [
    {
      "inputs": [
        {
          "internalType": "address",
          "name": "exampleExternalContractAddress",
          "type": "address"
        }
      ],
      "stateMutability": "nonpayable",
      "type": "constructor"
    },
    {
      "anonymous": false,
      "inputs": [
        {
          "indexed": true,
          "internalType": "address",
          "name": "user",
          "type": "address"
        },
        {
          "indexed": true,
          "internalType": "uint256",
          "name": "amount",
          "type": "uint256"
        }
      ],
      "name": "Stake",
      "type": "event"
    },
    {
      "inputs": [
        {
          "internalType": "address",
          "name": "_userAddress",
          "type": "address"
        }
      ],
      "name": "balances",
      "outputs": [
        {
          "internalType": "uint256",
          "name": "",
          "type": "uint256"
        }
      ],
      "stateMutability": "view",
      "type": "function"
    },
    {
      "inputs": [],
      "name": "deadline",
      "outputs": [
        {
          "internalType": "uint256",
          "name": "",
          "type": "uint256"
        }
      ],
      "stateMutability": "view",
      "type": "function"
    },
    {
      "inputs": [],
      "name": "exampleExternalContract",
      "outputs": [
        {
          "internalType": "contract ExampleExternalContract",
          "name": "",
          "type": "address"
        }
      ],
      "stateMutability": "view",
      "type": "function"
    },
    {
      "inputs": [],
      "name": "execute",
      "outputs": [],
      "stateMutability": "nonpayable",
      "type": "function"
    },
    {
      "inputs": [],
      "name": "openForWithdraw",
      "outputs": [
        {
          "internalType": "bool",
          "name": "",
          "type": "bool"
        }
      ],
      "stateMutability": "view",
      "type": "function"
    },
    {
      "inputs": [],
      "name": "stake",
      "outputs": [],
      "stateMutability": "payable",
      "type": "function"
    },
    {
      "inputs": [],
      "name": "threshold",
      "outputs": [
        {
          "internalType": "uint256",
          "name": "",
          "type": "uint256"
        }
      ],
      "stateMutability": "view",
      "type": "function"
    },
    {
      "inputs": [],
      "name": "timeLeft",
      "outputs": [
        {
          "internalType": "uint256",
          "name": "",
          "type": "uint256"
        }
      ],
      "stateMutability": "view",
      "type": "function"
    },
    {
      "inputs": [],
      "name": "withdraw",
      "outputs": [],
      "stateMutability": "nonpayable",
      "type": "function"
    },
    {
      "stateMutability": "payable",
      "type": "receive"
    }
  ],
  "transactionHash": "0x1cfd01fb456cde2f0fc1b879ad2b8b1f5827b1f1848e9d5cf4a197bbedeeaa91",
  "args": [
    "0xe15d43D9baD7F7F97A0a930cF650331631fe3236"
  ],
  "numDeployments": 1,
  "solcInputHash": "7a1f4cf3d4e01dbac13c0b34f503abe9",
  "bytecode": "0x6080604052610011426203f48061009c565b6001556002805460ff1916905534801561002a57600080fd5b506040516105d93803806105d98339810160408190526100499161006e565b600080546001600160a01b0319166001600160a01b03929092169190911790556100c0565b60006020828403121561007f578081fd5b81516001600160a01b0381168114610095578182fd5b9392505050565b600082198211156100bb57634e487b7160e01b81526011600452602481fd5b500190565b61050a806100cf6000396000f3fe60806040526004361061008a5760003560e01c80633ccfd60b116100595780633ccfd60b1461011a57806342cde4e81461012f578063614619541461014b5780639876a643146101605780639f75f2271461018a57600080fd5b80631300a6d11461009e57806327e235e3146100c657806329dcb0cf146100fc5780633a4b66f11461011257600080fd5b36610099576100976101c2565b005b600080fd5b3480156100aa57600080fd5b506100b36102cd565b6040519081526020015b60405180910390f35b3480156100d257600080fd5b506100b36100e1366004610461565b6001600160a01b031660009081526003602052604090205490565b34801561010857600080fd5b506100b360015481565b6100976101c2565b34801561012657600080fd5b506100976102f1565b34801561013b57600080fd5b506100b3670de0b6b3a764000081565b34801561015757600080fd5b50610097610386565b34801561016c57600080fd5b5060025461017a9060ff1681565b60405190151581526020016100bd565b34801561019657600080fd5b506000546101aa906001600160a01b031681565b6040516001600160a01b0390911681526020016100bd565b600034116102295760405162461bcd60e51b815260206004820152602960248201527f455448205374616b696e6720416d6f756e74206d757374206265206d6f7265206044820152687468616e207a65726f60b81b60648201526084015b60405180910390fd5b600154421061027a5760405162461bcd60e51b815260206004820152601b60248201527f5374616b696e6720646561646c696e65206861732070617373656400000000006044820152606401610220565b336000908152600360205260408120805434929061029990849061048f565b9091555050604051349033907febedb8b3c678666e7f36970bc8f57abf6d8fa2e828c0da91ea5b75bf68ed101a90600090a3565b600060015442106102de5750600090565b426001546102ec91906104a7565b905090565b60025460ff166103435760405162461bcd60e51b815260206004820152601d60248201527f5769746864726177616c2077696e646f77206973206e6f74206f70656e0000006044820152606401610220565b336000818152600360205260408082205490519091839183156108fc0291849190818181858888f19350505050158015610381573d6000803e3d6000fd5b505050565b60015442116103d75760405162461bcd60e51b815260206004820152601f60248201527f5374616b696e6720646561646c696e6520686173206e6f7420706173736564006044820152606401610220565b47670de0b6b3a764000081106104515760008054906101000a90046001600160a01b03166001600160a01b031663522e1177476040518263ffffffff1660e01b81526004016000604051808303818588803b15801561043557600080fd5b505af1158015610449573d6000803e3d6000fd5b505050505050565b6002805460ff1916600117905550565b600060208284031215610472578081fd5b81356001600160a01b0381168114610488578182fd5b9392505050565b600082198211156104a2576104a26104be565b500190565b6000828210156104b9576104b96104be565b500390565b634e487b7160e01b600052601160045260246000fdfea264697066735822122037fd8a58ce8184c7fb0261f95c0294778776047bd84a809d2f8b252dece6bd3864736f6c63430008040033",
  "devdoc": {
    "kind": "dev",
    "methods": {},
    "version": 1
  },
  "userdoc": {
    "kind": "user",
    "methods": {},
    "version": 1
  },
  "storageLayout": {
    "storage": [
      {
        "astId": 25,
        "contract": "contracts/Staker.sol:Staker",
        "label": "exampleExternalContract",
        "offset": 0,
        "slot": "0",
        "type": "t_contract(ExampleExternalContract)12"
      },
      {
        "astId": 34,
        "contract": "contracts/Staker.sol:Staker",
        "label": "deadline",
        "offset": 0,
        "slot": "1",
        "type": "t_uint256"
      },
      {
        "astId": 37,
        "contract": "contracts/Staker.sol:Staker",
        "label": "openForWithdraw",
        "offset": 0,
        "slot": "2",
        "type": "t_bool"
      },
      {
        "astId": 41,
        "contract": "contracts/Staker.sol:Staker",
        "label": "s_balances",
        "offset": 0,
        "slot": "3",
        "type": "t_mapping(t_address,t_uint256)"
      }
    ],
    "types": {
      "t_address": {
        "encoding": "inplace",
        "label": "address",
        "numberOfBytes": "20"
      },
      "t_bool": {
        "encoding": "inplace",
        "label": "bool",
        "numberOfBytes": "1"
      },
      "t_contract(ExampleExternalContract)12": {
        "encoding": "inplace",
        "label": "contract ExampleExternalContract",
        "numberOfBytes": "20"
      },
      "t_mapping(t_address,t_uint256)": {
        "encoding": "mapping",
        "key": "t_address",
        "label": "mapping(address => uint256)",
        "numberOfBytes": "32",
        "value": "t_uint256"
      },
      "t_uint256": {
        "encoding": "inplace",
        "label": "uint256",
        "numberOfBytes": "32"
      }
    }
  }
}